{
  "_format": "hh-sol-artifact-1",
  "contractName": "CoffeePortal",
  "sourceName": "contracts/JuiceMe.sol",
  "abi": [
    {
      "inputs": [
        {
          "internalType": "uint256",
          "name": "_coffeePrice",
          "type": "uint256"
        }
      ],
      "stateMutability": "payable",
      "type": "constructor"
    },
    {
      "anonymous": false,
      "inputs": [
        {
          "indexed": true,
          "internalType": "address",
          "name": "from",
          "type": "address"
        },
        {
          "indexed": false,
          "internalType": "uint256",
          "name": "timestamp",
          "type": "uint256"
        },
        {
          "indexed": false,
          "internalType": "string",
          "name": "message",
          "type": "string"
        },
        {
          "indexed": false,
          "internalType": "string",
          "name": "name",
          "type": "string"
        }
      ],
      "name": "NewCoffee",
      "type": "event"
    },
    {
      "inputs": [
        {
          "internalType": "string",
          "name": "_message",
          "type": "string"
        },
        {
          "internalType": "string",
          "name": "_name",
          "type": "string"
        }
      ],
      "name": "buyCoffee",
      "outputs": [],
      "stateMutability": "payable",
      "type": "function"
    },
    {
      "inputs": [],
      "name": "getAllCoffee",
      "outputs": [
        {
          "components": [
            {
              "internalType": "address",
              "name": "giver",
              "type": "address"
            },
            {
              "internalType": "string",
              "name": "message",
              "type": "string"
            },
            {
              "internalType": "string",
              "name": "name",
              "type": "string"
            },
            {
              "internalType": "uint256",
              "name": "timestamp",
              "type": "uint256"
            }
          ],
          "internalType": "struct CoffeePortal.Coffee[]",
          "name": "",
          "type": "tuple[]"
        }
      ],
      "stateMutability": "view",
      "type": "function"
    },
    {
      "inputs": [],
      "name": "getCoffeeAmount",
      "outputs": [
        {
          "internalType": "uint256",
          "name": "",
          "type": "uint256"
        }
      ],
      "stateMutability": "view",
      "type": "function"
    },
    {
      "inputs": [],
      "name": "getTotalCoffee",
      "outputs": [
        {
          "internalType": "uint256",
          "name": "",
          "type": "uint256"
        }
      ],
      "stateMutability": "view",
      "type": "function"
    },
    {
      "inputs": [],
      "name": "owner",
      "outputs": [
        {
          "internalType": "address payable",
          "name": "",
          "type": "address"
        }
      ],
      "stateMutability": "view",
      "type": "function"
    },
    {
      "inputs": [
        {
          "internalType": "uint256",
          "name": "_coffeePrice",
          "type": "uint256"
        }
      ],
      "name": "updateCoffeeAmount",
      "outputs": [],
      "stateMutability": "nonpayable",
      "type": "function"
    }
  ],
  "bytecode": "0x6080604052735b207c79fd665d33d74c19138e2944ffb72016c7600360006101000a81548173ffffffffffffffffffffffffffffffffffffffff021916908373ffffffffffffffffffffffffffffffffffffffff1602179055506040516200129a3803806200129a83398181016040528101906200007e919062000122565b33600260006101000a81548173ffffffffffffffffffffffffffffffffffffffff021916908373ffffffffffffffffffffffffffffffffffffffff160217905550670de0b6b3a764000081620000d5919062000183565b60018190555050620001e4565b600080fd5b6000819050919050565b620000fc81620000e7565b81146200010857600080fd5b50565b6000815190506200011c81620000f1565b92915050565b6000602082840312156200013b576200013a620000e2565b5b60006200014b848285016200010b565b91505092915050565b7f4e487b7100000000000000000000000000000000000000000000000000000000600052601160045260246000fd5b60006200019082620000e7565b91506200019d83620000e7565b9250817fffffffffffffffffffffffffffffffffffffffffffffffffffffffffffffffff0483118215151615620001d957620001d862000154565b5b828202905092915050565b6110a680620001f46000396000f3fe6080604052600436106100555760003560e01c8063204206e11461005a5780634839ee3f146100765780638da5cb5b146100a1578063d386beca146100cc578063da56f73e146100f7578063f23ab3d314610120575b600080fd5b610074600480360381019061006f91906108c6565b61014b565b005b34801561008257600080fd5b5061008b6103bd565b6040516100989190610957565b60405180910390f35b3480156100ad57600080fd5b506100b66103c6565b6040516100c391906109b3565b60405180910390f35b3480156100d857600080fd5b506100e16103ec565b6040516100ee9190610bb2565b60405180910390f35b34801561010357600080fd5b5061011e60048036038101906101199190610c00565b6105cf565b005b34801561012c57600080fd5b506101356106bf565b6040516101429190610957565b60405180910390f35b600360009054906101000a900473ffffffffffffffffffffffffffffffffffffffff1673ffffffffffffffffffffffffffffffffffffffff166323b872dd33600260009054906101000a900473ffffffffffffffffffffffffffffffffffffffff166001546040518463ffffffff1660e01b81526004016101ce93929190610c9b565b602060405180830381600087803b1580156101e857600080fd5b505af11580156101fc573d6000803e3d6000fd5b505050506040513d601f19601f820116820180604052508101906102209190610d0a565b61025f576040517f08c379a000000000000000000000000000000000000000000000000000000000815260040161025690610d94565b60405180910390fd5b60016000808282546102719190610de3565b92505081905550600460405180608001604052803373ffffffffffffffffffffffffffffffffffffffff16815260200184815260200183815260200142815250908060018154018082558091505060019003906000526020600020906004020160009091909190915060008201518160000160006101000a81548173ffffffffffffffffffffffffffffffffffffffff021916908373ffffffffffffffffffffffffffffffffffffffff160217905550602082015181600101908051906020019061033d9291906106c9565b50604082015181600201908051906020019061035a9291906106c9565b506060820151816003015550503373ffffffffffffffffffffffffffffffffffffffff167f5d202edb9ac9aca913189e3c829f7fdbba23859e91379c70ecf7874fe39632a74284846040516103b193929190610e72565b60405180910390a25050565b60008054905090565b600260009054906101000a900473ffffffffffffffffffffffffffffffffffffffff1681565b60606004805480602002602001604051908101604052809291908181526020016000905b828210156105c657838290600052602060002090600402016040518060800160405290816000820160009054906101000a900473ffffffffffffffffffffffffffffffffffffffff1673ffffffffffffffffffffffffffffffffffffffff1673ffffffffffffffffffffffffffffffffffffffff16815260200160018201805461049990610ee6565b80601f01602080910402602001604051908101604052809291908181526020018280546104c590610ee6565b80156105125780601f106104e757610100808354040283529160200191610512565b820191906000526020600020905b8154815290600101906020018083116104f557829003601f168201915b5050505050815260200160028201805461052b90610ee6565b80601f016020809104026020016040519081016040528092919081815260200182805461055790610ee6565b80156105a45780601f10610579576101008083540402835291602001916105a4565b820191906000526020600020905b81548152906001019060200180831161058757829003601f168201915b5050505050815260200160038201548152505081526020019060010190610410565b50505050905090565b600260009054906101000a900473ffffffffffffffffffffffffffffffffffffffff1673ffffffffffffffffffffffffffffffffffffffff163373ffffffffffffffffffffffffffffffffffffffff161461065f576040517f08c379a000000000000000000000000000000000000000000000000000000000815260040161065690610f8a565b60405180910390fd5b600081116106a2576040517f08c379a000000000000000000000000000000000000000000000000000000000815260040161069990610ff6565b60405180910390fd5b670de0b6b3a7640000816106b69190611016565b60018190555050565b6000600154905090565b8280546106d590610ee6565b90600052602060002090601f0160209004810192826106f7576000855561073e565b82601f1061071057805160ff191683800117855561073e565b8280016001018555821561073e579182015b8281111561073d578251825591602001919060010190610722565b5b50905061074b919061074f565b5090565b5b80821115610768576000816000905550600101610750565b5090565b6000604051905090565b600080fd5b600080fd5b600080fd5b600080fd5b6000601f19601f8301169050919050565b7f4e487b7100000000000000000000000000000000000000000000000000000000600052604160045260246000fd5b6107d38261078a565b810181811067ffffffffffffffff821117156107f2576107f161079b565b5b80604052505050565b600061080561076c565b905061081182826107ca565b919050565b600067ffffffffffffffff8211156108315761083061079b565b5b61083a8261078a565b9050602081019050919050565b82818337600083830152505050565b600061086961086484610816565b6107fb565b90508281526020810184848401111561088557610884610785565b5b610890848285610847565b509392505050565b600082601f8301126108ad576108ac610780565b5b81356108bd848260208601610856565b91505092915050565b600080604083850312156108dd576108dc610776565b5b600083013567ffffffffffffffff8111156108fb576108fa61077b565b5b61090785828601610898565b925050602083013567ffffffffffffffff8111156109285761092761077b565b5b61093485828601610898565b9150509250929050565b6000819050919050565b6109518161093e565b82525050565b600060208201905061096c6000830184610948565b92915050565b600073ffffffffffffffffffffffffffffffffffffffff82169050919050565b600061099d82610972565b9050919050565b6109ad81610992565b82525050565b60006020820190506109c860008301846109a4565b92915050565b600081519050919050565b600082825260208201905092915050565b6000819050602082019050919050565b6000610a0582610972565b9050919050565b610a15816109fa565b82525050565b600081519050919050565b600082825260208201905092915050565b60005b83811015610a55578082015181840152602081019050610a3a565b83811115610a64576000848401525b50505050565b6000610a7582610a1b565b610a7f8185610a26565b9350610a8f818560208601610a37565b610a988161078a565b840191505092915050565b610aac8161093e565b82525050565b6000608083016000830151610aca6000860182610a0c565b5060208301518482036020860152610ae28282610a6a565b91505060408301518482036040860152610afc8282610a6a565b9150506060830151610b116060860182610aa3565b508091505092915050565b6000610b288383610ab2565b905092915050565b6000602082019050919050565b6000610b48826109ce565b610b5281856109d9565b935083602082028501610b64856109ea565b8060005b85811015610ba05784840389528151610b818582610b1c565b9450610b8c83610b30565b925060208a01995050600181019050610b68565b50829750879550505050505092915050565b60006020820190508181036000830152610bcc8184610b3d565b905092915050565b610bdd8161093e565b8114610be857600080fd5b50565b600081359050610bfa81610bd4565b92915050565b600060208284031215610c1657610c15610776565b5b6000610c2484828501610beb565b91505092915050565b610c36816109fa565b82525050565b6000819050919050565b6000610c61610c5c610c5784610972565b610c3c565b610972565b9050919050565b6000610c7382610c46565b9050919050565b6000610c8582610c68565b9050919050565b610c9581610c7a565b82525050565b6000606082019050610cb06000830186610c2d565b610cbd6020830185610c8c565b610cca6040830184610948565b949350505050565b60008115159050919050565b610ce781610cd2565b8114610cf257600080fd5b50565b600081519050610d0481610cde565b92915050565b600060208284031215610d2057610d1f610776565b5b6000610d2e84828501610cf5565b91505092915050565b600082825260208201905092915050565b7f5472616e73666572206661696c65640000000000000000000000000000000000600082015250565b6000610d7e600f83610d37565b9150610d8982610d48565b602082019050919050565b60006020820190508181036000830152610dad81610d71565b9050919050565b7f4e487b7100000000000000000000000000000000000000000000000000000000600052601160045260246000fd5b6000610dee8261093e565b9150610df98361093e565b9250827fffffffffffffffffffffffffffffffffffffffffffffffffffffffffffffffff03821115610e2e57610e2d610db4565b5b828201905092915050565b6000610e4482610a1b565b610e4e8185610d37565b9350610e5e818560208601610a37565b610e678161078a565b840191505092915050565b6000606082019050610e876000830186610948565b8181036020830152610e998185610e39565b90508181036040830152610ead8184610e39565b9050949350505050565b7f4e487b7100000000000000000000000000000000000000000000000000000000600052602260045260246000fd5b60006002820490506001821680610efe57607f821691505b60208210811415610f1257610f11610eb7565b5b50919050565b7f4f6e6c7920746865206f776e65722063616e2063616c6c20746869732066756e60008201527f6374696f6e000000000000000000000000000000000000000000000000000000602082015250565b6000610f74602583610d37565b9150610f7f82610f18565b604082019050919050565b60006020820190508181036000830152610fa381610f67565b9050919050565b7f506c6561736520656e74657220612076616c6964207072696365000000000000600082015250565b6000610fe0601a83610d37565b9150610feb82610faa565b602082019050919050565b6000602082019050818103600083015261100f81610fd3565b9050919050565b60006110218261093e565b915061102c8361093e565b9250817fffffffffffffffffffffffffffffffffffffffffffffffffffffffffffffffff048311821515161561106557611064610db4565b5b82820290509291505056fea26469706673582212203f6a01b88218e130082fbb542834fc7b9347ab21d6a66bd8d88884fd2b7b634864736f6c63430008090033",
  "linkReferences": {},
  "deployedLinkReferences": {}
}